:020000040800F2
:100000001809002035020008893300082D33000844
:1000100085330008951F0008B9370008000000006C
:10002000000000000000000000000000B5330008E0
:10003000991F0008000000004B0200084D02000854
:100040004F0200084F0200084F0200084F0200084C
:100050004F0200084F0200084F0200084F0200083C
:100060004F0200084F0200084F0200084F0200082C
:100070004F0200084F0200084F0200084F0200081C
:100080004F0200084F0200084F0200084F0200080C
:100090004F0200084F0200084F0200084F020008FC
:1000A0004F0200084F0200084F0200084F020008EC
:1000B0004F0200084F0200084F0200084F020008DC
:1000C0004F0200084F0200084F0200084F020008CC
:1000D0004F02000891360008B53600084F020008AC
:1000E0004F0200084F0200084F02000800F002F81B
:1000F00000F090F80AA090E8000C82448344AAF132
:100100000107DA4501D100F085F8AFF2090EBAE82F
:100110000F0013F0010F18BFFB1A43F0010318473B
:100120006C4D00008C4D0000103A24BF78C878C197
:10013000FAD8520724BF30C830C144BF04680C60ED
:10014000704700000023002400250026103A28BF35
:1001500078C1FBD8520728BF30C148BF0B60704739
:100160006E2900F09283702900F06B81662904F0FB
:10017000FD85652904F0FA85672904F0F785612972
:1001800004F0F68503681B0A28BF41F08001692945
:1001900000F0DC80642900F0D980752900F0D68059
:1001A0006F2900F09786782900F03781E92900F05F
:1001B0003186E42900F02E86F52900F02B86EF2900
:1001C00000F09486F82900F036810368DB0928BF27
:1001D00041F08001632900F0A085732900F0A58516
:1001E000E32901F0D180F32901F0D6800020704787
:1001F0001FB500F0B7FE04000020002104F034FB1E
:10020000401C60600020002104F018FBE0601FBD6E
:1002100010B510BD01F05AF91146FFF7E9FF04F0DF
:100220000BF901F081F903B4FFF7F2FF03BC03F00F
:10023000FCFA00000948804709480047FEE7FEE74E
:10024000FEE7FEE7FEE7FEE7FEE7FEE7FEE7FEE786
:1002500004480549054A064B70470000D1330008A1
:10026000ED000008180300201809002018050020E0
:1002700018050020704700000FB4044910B503AA08
:10028000029800F057FD10BC5DF814FB0800002038
:100290001CB50C46064B7B4469460090204600F096
:1002A0001AFD04460020694600F028FD20461CBDCA
:1002B000630A00000FB4044910B503AA029800F0C5
:1002C00039FD10BC5DF814FB080000200FB41CB50C
:1002D000084B06AA7B4469460090059800F0FBFC99
:1002E00004460020694600F009FD20461CBC5DF86C
:1002F00014FB0000250A000070B50C460546012AD3
:1003000005D02878800600D5EA69002302E00123A1
:1003100005E05B1C934202D2E05C0028F9D1A86999
:10032000E618C01AA861286A18442862284600F016
:100330001AFA04E0D5E9012114F8010B9047B44200
:10034000F8D3284600F025FA70BD00002DE9F041F1
:100350000646002410687529314616A510D000F015
:1003600029FA002802DA404213A507E031688A071B
:1003700001D512A502E0490704D511A5012401E029
:1003800000F021FA00210A2206F1240709E0B0FB5F
:10039000F2FCB0FBF2F302FB1C003030785418463C
:1003A000491C0028F3D123462A463046BDE8F041D7
:1003B00000F012BA000000002D0000002B00000029
:1003C00020000000F0B40D460188090502D5214C3B
:1003D0007C4402E01F4C7C440E34002100F12406D2
:1003E00008E002F00F071209E75D42EA03721B09F9
:1003F0007754491C52EA0307F3D10278002312070D
:1004000004D5702D06D009B1022311342246F0BC68
:1004100000F0E2B901231034F8E770B504460D4648
:100420002146106800F0CFF9024629462046BDE873
:1004300070400023C6E7D21D22F00703D3E9002352
:10044000C0E70368126843F0200303600823C36118
:100450000023B7E7B84900002DE9F05F894604465C
:100460004FF0000ADFF874B1FB44C0F820A020462A
:10047000E1688847002874D0252806D0D4E90121F6
:100480009047206A401C2062F1E700265F46204624
:10049000E16888472028054607DB312D05D2781909
:1004A00010F8200C08B10643F1E7B00701D526F09B
:1004B0000406C4F81CA00027C4F818A02A2D09D0EF
:1004C000284603F0ABF938B304EB8708303DC8F891
:1004D000185019E059F8041B204604EB870291617B
:1004E000E1688847012F054618D1E069002820DA25
:1004F00026F020061DE0D8F8180000EB800005EB80
:1005000040003038C8F818002046E16888470546A2
:1005100003F084F90028EED1012F0AD02E2D08D146
:100520002046E16888477F1C0546022F46F02006DA
:10053000C4DBA069002803DA404246F00106A0614E
:10054000F00701D026F010066C2D0BD0682D09D0D5
:100550004C2D39D06A2D35D0742D35D07A2D33D02D
:1005600016E038E0E1682F4620468847B842054645
:1005700009D16C2F26D04FF48060E16806432046F5
:100580008847054604E06C2F1AD04FF4807006436C
:100590000DB3A5F14100192802D8203546F40066B4
:1005A0004A462946204626604E46FFF7D9FD80B1CF
:1005B00001280BD0F61D26F0070000F1080956E7C8
:1005C0004020E4E78020D8E70020D6E706F10409C0
:1005D0004DE7284652E7206ABDE8F09F48490000F1
:1005E00030B505460B462A4613F8014B12F8010BAD
:1005F00008B1A042F8D01CB1002802D06D1CF1E770
:10060000284630BD10B5431C02E010F8011B71B143
:100610008107FAD14FF0013202C88C1A8C4314EAD8
:10062000C211F9D0C01A0A0603D0C01E10BDC01AEC
:1006300010BD0A0401D0801E10BD0902FCD0401E6E
:1006400010BD032A40F2308010F0030C00F015803A
:1006500011F8013BBCF1020F624498BF11F801CBC5
:1006600000F8013B38BF11F8013BA2F1040298BF2A
:1006700000F801CB38BF00F8013B11F0030300F094
:100680003F84083AC0F0088051F8043B083A51F81A
:1006900004CBA0E80810F5E7121D5CBF51F8043B3D
:1006A00040F8043BAFF30080D20724BF11F8013BB0
:1006B00011F801CB48BF11F8012B24BF00F8013B12
:1006C00000F801CB48BF00F8012B70474FF0000243
:1006D0000429C0F0128010F0030C00F01B80CCF154
:1006E000040CBCF1020F18BF00F8012BA8BF20F8C2
:1006F000022BA1EB0C0100F00DB85FEAC17C24BF16
:1007000000F8012B00F8012B48BF00F8012B7047BF
:100710004FF0000200B5134694469646203922BF9A
:10072000A0E80C50A0E80C50B1F12001BFF4F7AFE5
:10073000090728BFA0E80C5048BF0CC05DF804EBC7
:10074000890028BF40F8042B08BF704748BF20F835
:10075000022B11F0804F18BF00F8012B7047704733
:1007600070477047704770B5044685690068C106D8
:1007700001D5302600E02026C00707D070BDD4E99F
:10078000012130469047206A401C20626D1EF6D53C
:1007900070BD70B5044685690078C00707D170BD8B
:1007A000D4E9012120209047206A401C20626D1E60
:1007B000F6D570BD09684A0501D540B27047C90534
:1007C000FCD500B2704709684A0501D5C0B2704730
:1007D000C905FCD580B270472DE9F0470D46994612
:1007E0009246044600F124080168880604D5E069B1
:1007F00021F01001216000E00120A84201DD471B2B
:1008000000E00027A1697A1902EB0900081AA0612B
:100810002078C00602D42046FFF7A5FF002608E096
:10082000D4E901211AF806009047206A401C761C82
:1008300020624E45F4DB2078C0060AD52046FFF73B
:1008400092FF06E0D4E9012130209047206A401C45
:100850002062381EA7F10107F4DC07E0D4E901218A
:1008600018F805009047206A401C2062281EA5F158
:100870000105F3DC2046FFF78CFF2078000602D547
:100880000220BDE8F0870120FBE711680268006ADA
:10089000530501D508700AE0D30501D5088006E0AC
:1008A000130603D5C217C1E9000200E00860012069
:1008B000704770472DE9FF4F0C461E464FF0FF373B
:1008C0008BB0D2E90001DDF860800A908A46C1F35E
:1008D0000A5505B93D46002108464FF00000BAF11F
:1008E000000F00F4400005DA00EB80004FF44001F7
:1008F00001EA50004FEA9059B9F1010F00DDB94605
:100900000A9850EA4A000ED044F61050A5F2FF357E
:1009100045432F14B8F1000F1ED07542291E1EDD6D
:10092000C9F100021CE0B8F1010F4FF0000001D046
:10093000302103E0F24305E02154401CB042FBDBD0
:1009400030460022002121540B99C1F80880C1E9EA
:1009500000200FB0BDE8F08FBD1B6D1CDEE74A46DE
:1009600000DA694206A800F01BFD06AB93E8070019
:1009700003AB83E8070050460A9900F01BFE8DE8A0
:100980000700A0F500501F3800900398002D09DDE6
:1009900042F21F014A46084403A90390684601F049
:1009A0007AF808E0A0F500504A461F3803A90390E2
:1009B000684601F084F88DE807000004000C03D0BD
:1009C0004FF0FF30410800E01046B8F1000F03D0AF
:1009D0000022009215461EE0751E05D400F0C6FAEE
:1009E000303262556D1EF9D5B3460122084302D05C
:1009F00000227F1C04E02078302801D100227F1ED5
:100A0000002A099786D01DE0112D07DA00F0AEFA12
:100A1000303262556D1C50EA0102F5D1084302D014
:100A20000098C8B10EE00021681E05E0235C625CFE
:100A300063542254401E491C8142F7DBAB46A81B7D
:100A4000401E0990002004F80B000B98099AC0F88A
:100A50000880C0E9002B7CE711264FF0000859E719
:100A60002DE9F04F88460446D21D22F0070191B0CF
:100A7000D1E90001CDE90A0102F0A0FE02460B987F
:100A8000C00F01D02D2007E02068810701D52B2061
:100A900002E0202101EAC000032A099001D0072AC0
:100AA00005DB03464146204600F024FC0BE120789C
:100AB000800601D5E06900E00620B8F1650F8146A7
:100AC00006D0B8F1660F18D0B8F1670F70D131E0D9
:100AD0000020B9F1110F009001DB112301E009F1B1
:100AE00001030AAA01A90CA8FFF7E4FEDDE90C70D6
:100AF000002609F10105834647E001204B4600909E
:100B00004FF000470AAA01A90CA8FFF7D3FEDDE9C0
:100B10000DB00C995D46002610B909F101000D18C1
:100B2000B9EB050003D4C0F1FF3609F10105A5EBCF
:100B300009002BE0B9F1010F01DA4FF001090020A3
:100B4000B9F1110F0090484601DD112300E0034682
:100B50000AAA01A90CA8FFF7ADFEDDE90C704D460D
:100B600000268346207800070AD4AB4500DA5D46AC
:100B700001A8012D04DD411911F8011C302907D00D
:100B80004F4502DA17F1040F04DA012082460FE024
:100B90006D1EEEE7002F02DCED1B3E4403E0781CE7
:100BA000A84200DD7D1CB81B00F1010A4FF0004790
:100BB0002078000703D4AA4501DB4FF0FF3A00215B
:100BC000B7F1004F0DF143088DF8431024D00220F7
:100BD0002B23002F01DA7F422D230A21021EA0F1D0
:100BE000010000DC5FB197FBF1FC97FBF1F201FB28
:100BF0001C7C17460CF1300C08F801CDEEE7A8F18B
:100C0000010003702188090501D5452100E0652117
:100C1000A0F1010800F8011C09980FA9A1EB080731
:100C2000FF1D00B10120411901EBEA70A1693844B0
:100C3000081A401EA0612078C00602D42046FFF7A3
:100C400092FD099828B1D4E901219047206A401CFF
:100C500020622078C00622D52046FFF784FD1EE0E2
:100C6000002E04DBB34502DD01A8805D00E03020EA
:100C7000D4E901219047206A401C2062761CAAF129
:100C800001005FEA000A0AD100F06CF9C06801684F
:100C9000405CD4E901219047206A401C2062281E54
:100CA000A5F10105DCDC07E0D4E9012118F8010B0E
:100CB0009047206A401C2062381EA7F10107F3DC30
:100CC0002046FFF766FD032011B043E601694A1C88
:100CD00002610878704700B58FB0CDE9013100217D
:100CE000059105497944CDE9031011466846FFF79F
:100CF000B3FB0FB000BD0000E5FFFFFF0A6802F87C
:100D0000010B0A60704710B5436913B1AFF300805F
:100D100001E0FFF7F1FA012010BD127800F1240183
:100D20000A7000224A700122EDE711684FF0FF328D
:100D3000E9E70000074B70B50D467B44FFF7CBFF9A
:100D40000446284600F09AFB10B14FF0FF3070BD0A
:100D5000204670BD973500002DE9FF5F15468A4695
:100D60000446DFF8AC80F8440027D8E900103E467E
:100D7000CDE9001010E03AF816106A4602A800F01B
:100D800081FB411C07D02178890603D5E269391817
:100D900091420DD80744761C2078800602D5E06980
:100DA000B84205DDAE42E6DB3AF816000028E2D193
:100DB000A069C01BA0612046FFF7D5FCD8E9001050
:100DC000CDE90010002017E03AF818106A4602A892
:100DD00000F058FBB0F1FF3F81460BD000250DF12C
:100DE000080B05E0D4E901211BF8050090476D1CB4
:100DF0004D45F7D308F10100B0428046E4DB206A9C
:100E0000384420622046FFF7C4FCBDE8FF9F000085
:100E10005E4000002DE9F0418046D21D22F007021D
:100E20000025D2E90002F52915A614D0011E72F1A1
:100E3000000106DA0023D0EB030063EB020211A6E7
:100E400008E0D8F800108B0701D50FA602E049078B
:100E500001D50EA601251146002408F1240704E05F
:100E600000F084F830323A55641C50EA0102F7D1A0
:100E70002B46324621464046BDE8F041FFF7ACBC68
:100E8000000000002D0000002B00000020000000EA
:100E900030B4002100F1240408E002F00705D20874
:100EA000303542EA4372DB086554491C52EA0305B7
:100EB000F3D10468002310A2250708D504F020040C
:100EC0000C4304D0C46901230CA2641EC46130BC6D
:100ED000FFF782BC10B5044621461068FFF773FC8B
:100EE00002462046BDE810400023D1E7D21D22F083
:100EF0000701D1E90023CBE700000000300000002B
:100F000010B5203AC0F00B80B1E81850203AA0E8A4
:100F10001850B1E81850A0E81850BFF4F5AF5FEAD8
:100F2000027C24BFB1E81850A0E8185044BF18C98B
:100F300018C0BDE810405FEA827C24BF51F8043B32
:100F400040F8043B08BF7047D20728BF31F8023B86
:100F500048BF11F8012B28BF20F8023B48BF00F81A
:100F6000012B704700487047D402002030B5B0F123
:100F70000A024FEA900E71F100034EEA817EB0EB57
:100F80000E0061EB91014FEA101E4EEA017E10EB5C
:100F90000E0041EB11114FEA102E4EEA016E10EBDC
:100FA0000E0041EB11214FEA104E4EEA014E10EBBC
:100FB0000E0041EB1141401841F100014FEAD00011
:100FC00040EA41704FEAD10110EB80054FEA8104FD
:100FD00044EA907444EB01046D1944EB0404521B81
:100FE000A3414FF0000348BF0A3200D530BD401C7A
:100FF00041F1000130BD00002DE9F04F04460D46DF
:10100000D21D22F0070089B0D0E900924846174669
:10101000394602F0D3FB0246F80F01D02D2307E03A
:101020002068810701D52B2302E0202101EAC003BB
:101030008DF820300BB1012000E00020032A824609
:1010400001D0072A04DB2946204600F053F93DE190
:101050002078800601D40D2500E0E569C7F30A5623
:101060000D2D49DA00214FEA175B08464FF00000CA
:10107000002F00F4400007DA00EB80004FF440013D
:1010800000EBD07001EA60008115012901DD4FF00D
:10109000FF3100224FEA850CBCF1180F06D313462E
:1010A000ACF118004FF08052C24003E04FF48013BF
:1010B00023FA0CF30CF10C0CBCF1200F04D3ACF1AF
:1010C000200C09FA0CF001E007FA0CF000294FF0AF
:1010D000004801DD18B90FE00ED140450CD319EBE3
:1010E00002095F4121B9404502D19F4329EA020923
:1010F000BBEB175F00D0761C2088000502D57B482B
:10110000784402E079487844193808AA302302F874
:101110000A30037C0AF10101002E0AF1020A53543D
:101120006A4602DC4FF0300101E04FF031014FF030
:1011300001088DF8001002D0A6F2FF3603E059EA4C
:10114000470100D06A4E002D02DC2178090704D542
:101150004FF002082E218DF80110C44600210BE04B
:10116000C7F303433F01C35C491C6D1E02F80830FE
:10117000052908F1010801DA002DF1DC00210CE05D
:1011800000EB1973491C1B786D1E082902F8083002
:101190004FEA091908F1010801DA002DF0DC217885
:1011A000890602D514E0A8F10108E04505DD02EB4F
:1011B000080111F8011C3029F5D0B8F1000F07DD46
:1011C00002EB080111F8011C2E2901D1A8F1010838
:1011D000002D05DD3E2102F808106D1E08F1010802
:1011E000407C002E02F8080008F1010804DA2D20E6
:1011F000764202F8080002E02B2002F808000A21DB
:101200004FF47A70864208F101080BDB96FBF0F38D
:10121000303302F8083096FBF0F308F1010800FBC8
:10122000136601E0642E0CDB642096FBF0F3303390
:1012300002F8083096FBF0F308F1010800FB136692
:1012400001E00A2E06DB96FBF1F0303002F80800D0
:1012500008F1010896FBF1F001FB1060303002F854
:101260000800A16908F1010808EB050202EB0A0079
:10127000081AA0612078C00602D42046FFF773FA4E
:10128000216A08AE01EB0A00206204E0D4E90121E2
:1012900016F8010B9047BAF1010AF7D22078C00680
:1012A00002D52046FFF75FFA6E4609E016F8010BFB
:1012B0003E280FD0D4E901219047206A401C2062CB
:1012C000B8F10108F2D22046FFF763FA09B0032013
:1012D000BDE8F08F206A2844206203E0D4E90121B0
:1012E000302090476D1EEBD3F8E70000DF3C000094
:1012F00002FCFFFF2DE9F0411F460446032601686A
:10130000072A01F4006004DB08B116A505E016A564
:1013100003E008B115A500E015A521F0100020603C
:10132000A069C01EA0610FB1401EA0612046FFF75A
:101330001AFA4FB1D4E9012138469047206A401C7F
:101340002062C01C206206E0206AFAE7D4E901218D
:1013500015F8010B9047761EF8D22046FFF719FAD0
:10136000BDE8F0814E414E006E616E00494E460070
:10137000696E660010B5436913B1AFF3008001E0F8
:10138000FFF7EAFC012010BD128800F124018284DD
:101390000022C2840122EDE711684FF0FF32E9E735
:1013A0002DE9F047814616468AB0334878440DC887
:1013B0008DE80D0030487844801C03AC0DC884E8EB
:1013C0000D0041F69B300844372190FBF1F290FB71
:1013D000F1F5A5F1800501FB12041B3C02D5644226
:1013E000012000E00020DFF890A080460027FA44AA
:1013F000AAF1BE0A0DE0E00709D03246684607EBC5
:1014000047010AEB810100F05AFB8DE807006410E8
:101410007F1C002CEFD1184F7F44AC3F18E0E80749
:1014200014D007EB04100DF1180A90E80E008AE8BA
:101430000E00C068F04201D198190890324606A902
:1014400003A800F03CFB03AB83E807006D10641CAD
:10145000002DE4D132466946B8F1000F03A802D04E
:1014600000F019FB01E000F02AFBC9E90001C9F80E
:1014700008200AB0BDE8F087C43A0000007B00F005
:101480008000704770B516460C46054600F044F8DB
:10149000036893F80101012806D0FF2C0FD8185DCE
:1014A00068B101202C7070BDD3F807013246214687
:1014B00003F2071303442846BDE8704018474FF075
:1014C000FF3070BD00487047B40200207546FFF73A
:1014D000F9FFAE4605006946534620F007008546F1
:1014E00018B020B5FEF7B4FEBDE820404FF000066E
:1014F0004FF000074FF000084FF0000B21F00701FC
:10150000AC46ACE8C009ACE8C009ACE8C009ACE83E
:10151000C0098D467047000010B5FFF723FD001D80
:1015200010BD00BF453300000446AFF300802046E5
:10153000FEF779FE4FF0013C50F8042B51F8043BC4
:101540009A4221D1A2EB0C03934313EACC1317D197
:1015500050F8042B51F8043B9A4215D1A2EB0C032E
:10156000934313EACC130BD150F8042B51F8043BEE
:101570009A4209D1A2EB0C03934313EACC13DBD0BC
:101580004FF00000704700BFD01A01BAB1FA81F1E4
:1015900001F0180122FA01F0CB40C1F12001DBB2C9
:1015A000C0B2C01A2CFA01F3D11A914311EAC31147
:1015B000E6D170475FEA400C08BF91F0000F4FEA98
:1015C0008C234FEAC12243EA51514FEA1C5018BF05
:1015D00000F5F0404FEA300018BF41F000415FEAEB
:1015E0006C5C00F02980BCF1FF3F08BF40F08040F8
:1015F0007047130C06BF12044FF0100C4FF0000C94
:10160000130E04BF12020CF1080C130F04BF1201D9
:101610000CF1040C930F04BF92000CF1020CD30FD9
:1016200004BF52000CF1010C11464FF00002A0F172
:101630001F00A0EB0C00704711F0004F08BF70476F
:1016400031F000413FF4D5AF0B0C06BF09044FF059
:10165000100C4FF0000C0B0E04BF09020CF1080C2B
:101660000B0F04BF09010CF1040C8B0F04BF8900A0
:101670000CF1020CCB0F04BF49000CF1010CCCF1B2
:101680002003A0EB0C0022FA03F302FA0CF241EA69
:10169000030100F10100704720F07F4C80EA030055
:1016A00023F07F47ACEB070303F57C5300F00040C9
:1016B00003F1FF032DE980494FEA154B09B44FEAC6
:1016C000144325EA0B4E24EA03480FF2042606EBE6
:1016D000132749083E785FEA320203FB0667C7F525
:1016E000000707FB06F64FEA54374FEAD64606F1E5
:1016F000020607FB066CCCF1005C4FEA1C472CEAA3
:10170000074C07FB06F40CFB06F504EB15464FEA05
:10171000961634BF00204FF000404FEAD13706FB49
:1017200007FC4FEA1C4C0CFB0BF7D21B03FB0CF71E
:1017300061EB07010CFB0EF7B0EB074072EB1742B1
:101740000CFB08F734BFA2EB0742B2EB074261EB98
:1017500017414FEA0C444FEA910706FB07FC4FEA9A
:101760001C4C0CFB0BF7B0EBC74072EB573203FB82
:101770000CF734BFA2EBC742B2EBC74261EB573163
:101780000CFB0EF7B0EBC70072EB57720CFB08F7BF
:1017900034BFA2EBC702B2EBC70261EB5771039FE4
:1017A0004FEA816141EA921104EBCC044FEAD13750
:1017B0004FEA826206FB07FC42EA90124FEA806021
:1017C0004FEA1C4C0CFB0BF7D21B03FB0CF761EB35
:1017D00007010CFB0EF7B0EB074072EB17420CFB56
:1017E00008F734BFA2EB0742B2EB074261EB1741A7
:1017F0004FEA8C554FEA910704EB9C2406FB07FC4B
:101800004FEA1C4C0CFB0BF7B0EBC74072EB5732A6
:1018100003FB0CF734BFA2EBC742B2EBC74261EB4C
:1018200057310CFB0EF7B0EBC70072EB57720CFB95
:1018300008F734BFA2EBC702B2EBC70261EB5771E6
:1018400015EB4C254FEA816141EA92114FEA826221
:101850004FEAD13742EA901206FB07FC44F100043C
:101860004FEA80604FEA1C4C0CFB0BF7D21B03FBCA
:101870000CF761EB07010CFB0EF7B0EB074072EBC6
:1018800017420CFB08F734BFA2EB0742B2EB07424A
:1018900061EB174115EB1C154FEA813141EA92418A
:1018A0004FEA823242EA90424FEA80304FEA0C76A9
:1018B00044F1000448EA03434EEA0B484FF0000E9F
:1018C000B2EB080C71EB030724BF624639464EEBBE
:1018D0000E0E4FF0000B0018524149414BEB0B0B21
:1018E000B2EB080C71EB03077BF1000B24BF6246DF
:1018F00039464EEB0E0E4FF0000B00185241494195
:101900004BEB0B0BB2EB080C71EB03077BF1000BFD
:1019100024BF624639464EEB0E0E51EA020718BF4D
:1019200046F0010616EB0E7655F1000254F1000167
:1019300003D5BDE88901BDE80088BDE88901BDE89F
:101940000048B619524141EB0101A3F10103704770
:1019500080807F7E7D7C7B7A7978777676757473EC
:10196000727171706F6E6E6D6C6C6B6A6A696868AB
:10197000676666656464636362616160605F5F5E41
:101980005E5D5D5C5C5B5B5A5A59595858575756B7
:10199000565555555454535352525251515050501C
:1019A0004F4F4F4E4E4D4D4D4C4C4C4B4B4B4A4A6E
:1019B0004A494949484848474747474646464545B2
:1019C00045444444444343434342424242414141EB
:1019D000002B26D4770021D01CB54FEA370703B47B
:1019E0004FF010004FF010014FF000000FBCBDE8A9
:1019F00010400BF1010BBBF1010F08BF5FEA1707A5
:101A000022BF12F1010211F101014FF0004143F137
:101A1000000300F0004043EA00007047F9D3570884
:101A2000DAE746EA064613F1400F4FEA16461FDD95
:101A300013F1200FDFBF16430A46002120335B421B
:101A4000C8D0C3F1200746EA064602FA07F74FEA74
:101A5000164646EA0706C3F1200722FA03F201FA06
:101A600007F721FA03F14FF0000342EA0702B1E75A
:101A700046EA020646EA06464FEA164646EA0106E6
:101A8000BCBF46EA0646360C4FF000034FF000029A
:101A90004FF000019EE72DE9C048934630B491E82D
:101AA000380007C831EA400C48BF34EA430C03D57C
:101AB000FFF7F2FDFFF78CFFF0BCBDE800882DE9D1
:101AC000C048934630B491E8380007C810F0804F02
:101AD00008BF13F0804F03D100F005F8FFF778FF3F
:101AE000F0BCBDE8008820F07F4780EA030023F0C7
:101AF0007F4C07EB0C03A3F57C5300F00040A3F1EF
:101B0000FE0392F0000F00F0B38095F0000F00F09C
:101B100077802DE901494FEA11404FEA144621EA46
:101B2000004800FB06FC24EA064708FB06F607FB14
:101B300008F800FB07F718EB06484CEB164C4FEA89
:101B4000124B18EB07484FEA15464CEB174022EAB8
:101B50000B4E0BFB06FC25EA06470EFB06F607FBC1
:101B60000EFE0BFB07F71EEB064E4CEB164C4FF030
:101B700000061EEB074E4CEB174B18EB0B0840F121
:101B8000000018EB0E0B58EB000840F100008F1A14
:101B90004FF000013CBFC943661B14BFB5EB040CFA
:101BA00000213CBFC943F61B4FEA17444EEA8E0E94
:101BB00027EA04454FEA1C4704FB07622CEA074C5E
:101BC00005FB07F70CFB05F604FB0CFC16EB0746C0
:101BD00042EB174216EB0C4642EB1C421BEB06068F
:101BE00058EB0202414146EA9E0601D5BDE8018953
:101BF000B619524141EB0101A3F10103BDE801898E
:101C00004FEA14454FEA114724EA054621EA074CFA
:101C100005FB07F406FB07F70CFB06F105FB0CFCC4
:101C200011EB074144EB17444FEA124711EB0C410B
:101C300044EB1C4422EA074C05FB07F206FB07F7BE
:101C40000CFB06F605FB0CFC16EB074642EB1742B5
:101C500016EB0C4642EB1C456A1854F1000148BFD4
:101C60007047B619524141EB0101A3F101037047DE
:101C700095F0000F37D04FEA11424FEA144721EA9E
:101C8000024624EA074C02FB07F106FB07F70CFBB0
:101C900006F402FB0CFC14EB074441EB17414FEA3E
:101CA000154714EB0C4441EB1C4125EA074C02FBA1
:101CB00007F506FB07F70CFB06F602FB0CFC16EB20
:101CC000074645EB174516EB0C4645EB1C4212192F
:101CD00051F1000148BF7047B619524141EB010173
:101CE000A3F1010370474FEA14454FEA114724EA74
:101CF000054621EA074C05FB07F106FB07F70CFB3D
:101D000006F24FF0000605FB0CFC12EB074241EB1C
:101D1000174112EB0C4251EB1C4148BF704792181F
:101D200041EB0101A3F10103704700001FB5002042
:101D300001900120029003200390802000906946CA
:101D4000164800F005FA00BF01224021134800F0B8
:101D5000B1FB00BF052001F0F5FF80210F4800F026
:101D600097FB012802D10E49086002E000200C49CF
:101D7000086000BF00224021084800F09BFB00BF24
:101D8000052001F0DFFF012001906946034800F0C3
:101D9000DFF90348006804B010BD0000000C0140EA
:101DA000280000207FB5002400200190012002902F
:101DB000032003908020009069461B4800F0C8F97A
:101DC00001228021184800F075FB002521E0600603
:101DD000040E00BF01224021134800F06BFB00BF3E
:101DE000052001F0AFFF80210F4800F051FB0128D2
:101DF00001D1012600E00026344300BF002240212B
:101E0000094800F057FB00BF052001F09BFF681C4C
:101E1000C5B2082DDBDB012001906946024800F0C5
:101E200097F9204604B070BD000C01401FB5044670
:101E300001200190032003908020009069461548FE
:101E400000F086F9012C06D100BF01228021114843
:101E500000F030FB08E034B900BF002280210D48BB
:101E600000F028FB00E01FBD00BF0122402109480F
:101E700000F020FB00BF052001F064FF00BF00223E
:101E80004021044800F016FB00BF052001F05AFF76
:101E900000BFE8E7000C014070B50446002525E0CE
:101EA00004F0800028B101228021134800F002FBD9
:101EB00004E000228021104800F0FCFA6006040EC5
:101EC00000BF012240210C4800F0F4FA00BF0520B9
:101ED00001F038FF00BF00224021074800F0EAFA75
:101EE00000BF052001F02EFF681CC5B2082DD7DB0E
:101EF000FFF71CFF70BD0000000C014010B5022070
:101F000001F020FF10BD000010B500BF01228021AC
:101F10000F4800F0CFFA00BF00BF012240210C485B
:101F200000F0C8FA00BFFFF7E9FF00BF00228021E0
:101F3000074800F0BFFA00BFFFF7E0FF00BF002234
:101F40004021034800F0B6FA00BFFFF7D7FF10BDED
:101F5000000C014010B500BF002280210C4800F0A9
:101F6000A9FA00BFFFF7CAFF00BF012240210848BD
:101F700000F0A0FA00BFFFF7C1FF00BF01228021DF
:101F8000034800F097FA00BFFFF7B8FF10BD00004C
:101F9000000C014000BFFEE77047000070B504462A
:101FA000002594F82100022803D00420A063012515
:101FB000C1E02068006820F00E00216808602068F9
:101FC000006820F00100216808605C4920688842B0
:101FD00052D95A4978392068884201D1012047E016
:101FE000564964392068884201D1102040E05349A5
:101FF00050392068884201D1801539E04F493C3979
:102000002068884201D1801432E04C492839206888
:10201000884202D14FF480302AE0484914392068C0
:10202000884202D14FF4801022E04449206888425F
:1020300001D140041CE042492068884201D10120BE
:1020400016E03F4914312068884201D110200FE08A
:102050003B4928312068884201D1801508E0384981
:102060003C312068884201D1801401E04FF4803077
:102070003349091F086051E03049783920688842A7
:1020800001D1012047E02D4964392068884201D1FF
:10209000102040E0294950392068884201D180153C
:1020A00039E026493C392068884201D1801432E069
:1020B000224928392068884202D14FF480302AE032
:1020C0001E4914392068884202D14FF4801022E062
:1020D0001A492068884201D140041CE01849206850
:1020E000884201D1012016E0154914312068884248
:1020F00001D110200FE0124928312068884201D117
:10210000801508E00E493C312068884201D18014D6
:1021100001E04FF48030094980394860012084F89B
:10212000210000BF002084F8200000BF606B10B1C8
:102130002046616B8847284670BD00008000024041
:102140000804024010B50446A0B201F0DFFD10BD46
:102150002DE9F847024600239C467BE14FF0010839
:1021600008FA03F4D1F8008008EA0400A0427DD107
:10217000DFF8F4A2D1F80480A8EB0A09D0453AD0E0
:1021800014DCB8F1030F50D009DCB8F1000F31D0E6
:10219000B8F1010F1CD0B8F1020F49D120E0B8F11D
:1021A000110F18D0B8F1120F42D11EE0B9F5881FF7
:1021B00025D006DCB9F5803F20D0B9F5801F37D196
:1021C0001AE0B9F5001F18D0B9F5041F30D117E097
:1021D000D1F80CC02DE0D1F80C8008F1040C28E0F7
:1021E000D1F80C8008F1080C23E0D1F80C8008F13C
:1021F0000C0C1EE000BF00BF00BF00BF00BF00BF4F
:10220000D1F80880B8F1000F02D14FF0040C0BE0B8
:10221000D1F80880B8F1010F03D14FF0080C146118
:1022200002E04FF0080C546103E04FF0000C00E0B6
:1022300000BF00BFFF2801D8904601E002F104086A
:102240004646FF2802D84FEA830803E0A3F10808B6
:102250004FEA88084746D6F800804FF00F0909FA80
:1022600007F928EA09080CFA07F900E07AE048EAD9
:102270000908C6F80080D1F8048008F08058B8F149
:10228000805F6FD100BFDFF8E481D8F8188048F094
:102290000108DFF8D891C9F81880C846D8F8188026
:1022A00008F00108CDF8008000BF00BF4FEAB93840
:1022B0004FEA930958F829504FEA83784FEA187982
:1022C0004FF00F0808FA09F825EA0805DFF8A081A1
:1022D000424502D14FF0000824E0DFF898814245E2
:1022E00002D14FF001081DE0DFF88C81424502D198
:1022F0004FF0020816E0DFF88481424502D14FF02A
:1023000003080FE0DFF87881424502D14FF004085E
:1023100008E0DFF87081424502D14FF0050801E086
:102320004FF006084FEA83794FEA197908FA09F85D
:1023300048EA0505DFF850814FEA930948F829502B
:10234000D1F8048008F48038B8F5803F0BD1DFF86D
:102350003C81D8F8008048EA0008DFF83091C9F8DD
:1023600000800AE075E0DFF82481D8F8008028EAD0
:102370000008DFF81891C9F80080D1F8048008F44B
:102380000038B8F5003F0ED1DFF8008108F10408ED
:10239000D8F8008048EA0008DFF8F09009F1040955
:1023A000C9F800800DE0DFF8E48008F10408D8F8EF
:1023B000008028EA0008DFF8D49009F10409C9F880
:1023C0000080D1F8048008F48018B8F5801F0ED181
:1023D000DFF8B88008F10808D8F8008048EA00085B
:1023E000DFF8A89009F10809C9F800800DE0DFF8CE
:1023F0009C8008F10808D8F8008028EA0008DFF877
:102400008C9009F10809C9F80080D1F8048008F41B
:102410000018B8F5001F0ED1DFF8708008F10C0825
:10242000D8F8008048EA0008DFF8609009F10C094C
:10243000C9F800800DE0DFF8548008F10C08D8F8E6
:10244000008028EA0008DFF8449009F10C09C9F877
:1024500000805B1CD1F8008028FA03F8B8F1000F67
:102460007FF47CAEBDE8F887000011100010024038
:1024700000080140000C0140001001400014014020
:1024800000180140001C0140080001400004014008
:10249000024693680B400BB1012000E0002070471A
:1024A00010B5C26821EA020302EA010443EA0443C8
:1024B000036110BD0AB1016101E00B0403617047C3
:1024C00001480068704700001400002010B508485B
:1024D000006840F0100006490860052000F080F810
:1024E0000F2000F007F800F02BF8002010BD0000CE
:1024F0000020024070B504460E4800784FF47A710F
:10250000B1FBF0F00C490968B1FBF0F5284600F08A
:10251000F7FB08B1012070BD102C07D20022214624
:10252000501E00F01EF80548046001E00120F2E7AB
:102530000020F0E71C000020000000201800002010
:10254000704701460846002809DB00F01F030122FE
:102550009A4043099B0003F1E023C3F8002100BF28
:1025600070472DE9F05F80460D461646002701F0C2
:1025700039F9074639462A46334601F00700C0F1CB
:10258000070ABAF1040F02D94FF0040A01E0C0F1C2
:10259000070AD14600F1040ABAF1070F02D24FF040
:1025A000000A01E0A0F1030AD4464FF0010A0AFA3A
:1025B00009FAAAF1010A0AEA020A0AFA0CFA4FF029
:1025C000010B0BFA0CFBABF1010B0BEA030B4AEA14
:1025D0000B042146404601F00DF9BDE8F09F0000D4
:1025E00000BF00F00702064B19684FF6FF031940C1
:1025F000044B0B4343EA0221014B196000BF7047B3
:102600000CED00E00000FA0570B504460D460CB96B
:10261000012070BD5A48006800F00700A8420ED2A1
:102620005748006820F007002843554908600846CD
:10263000006800F00700A84201D00120E9E72078F7
:1026400000F0020002281DD1207800F004000428C8
:1026500005D14C48406840F4E0604A494860207821
:1026600000F00800082805D14648406840F4605052
:10267000444948604348406820F0F000A16808439E
:1026800040494860207800F0010078B36068012874
:1026900006D13C48006800F4003090B90120B8E74A
:1026A0006068022806D13748006800F0007040B921
:1026B0000120AEE73348006800F0020008B90120AD
:1026C000A7E73048406820F00300616808432D49BF
:1026D0004860FFF7F5FE064609E0FFF7F1FE801BB4
:1026E00041F28831884202D9032092E707E0254869
:1026F000406800F00C006168B0EB810FEDD120481C
:10270000006800F00700A8420ED91D48006820F0BC
:10271000070028431A4908600846006800F00700CF
:10272000A84201D0012074E7207800F004000428BA
:1027300007D11448406820F4E060E168084311497B
:102740004860207800F00800082808D10D4840684B
:1027500020F46050216940EAC1000A49486000F055
:102760003FF808494968C1F30311074A515CC84062
:102770000649086006480068FFF7BCFE002048E7ED
:102780000020024000100240744D000800000020AC
:102790001800002001480068704700000000002079
:1027A00000B5FFF7F7FF04494968C1F30221034A66
:1027B000515CC84000BD000000100240844D00087C
:1027C00000B5FFF7E7FF04494968C1F3C221034A96
:1027D000515CC84000BD000000100240844D00085C
:1027E000F0B585B00FF26C0C9CE8E01001A8A0E8F1
:1027F000E0101CA52D680095002100220023002474
:102800000020194D696801F00C05F5B1042D02D0C6
:10281000082D19D101E0154819E001ADC1F3834637
:10282000AC5D01F4803555B10F4D6D68C5F3404581
:102830001DF805200D4D6543B5FBF2F302E00C4D8C
:1028400004FB05F3184602E000BF084800BF00BFC4
:1028500005B0F0BD02030405060708090A0B0C0DBC
:102860000E0F1010010200000010024000127A004A
:1028700000093D00F8B504460CB90120F8BD2078E8
:1028800000F00100002878D0F848406800F00C0003
:1028900004280CD0F548406800F00C00082811D13D
:1028A000F248406800F48030B0F5803F0AD1EF482C
:1028B000006800F4003000285FD0606800285CD118
:1028C0000120DBE700BF6068B0F5803F06D1E74834
:1028D000006840F48030E549086028E0606858B935
:1028E000E248006820F48030E0490860084600684B
:1028F00020F4802008601AE06068B0F5A02F0BD1AA
:10290000DA48006840F48020D8490860084600682A
:1029100040F4803008600AE0D448006820F4803039
:10292000D24908600846006820F48020086000BF93
:10293000606888B1FFF7C4FD054606E0FFF7C0FDFB
:10294000401B642801D9032098E7C848006800F4B8
:1029500000300028F2D010E0FFF7B2FD054606E097
:10296000FFF7AEFD401B642801D9032086E7BF486E
:10297000006800F400300028F2D1207800F0020056
:10298000022857D1B948406800F00C0050B1B74850
:10299000406800F00C00082818D1B448406800F4E2
:1029A000803098B9B148006800F0020020B1206979
:1029B000012801D0012061E7AC48006820F0F80050
:1029C000616940EAC100A949086033E02069E8B1C3
:1029D0000120A7490860FFF773FD054606E0FFF7F1
:1029E0006FFD401B022801D9032047E79F4800687C
:1029F00000F002000028F2D09C48006820F0F800A7
:102A0000616940EAC1009949086013E000209849D3
:102A10000860FFF755FD054606E0FFF751FD401B36
:102A2000022801D9032029E79048006800F002003D
:102A30000028F2D1207800F0080008282DD1A069E4
:102A4000B8B101208B490860FFF73AFD054606E062
:102A5000FFF736FD401B022801D903200EE783480B
:102A6000406A00F002000028F2D0012000F08EFC45
:102A700013E000207F490860FFF722FD054606E0CD
:102A8000FFF71EFD401B022801D90320F6E6774818
:102A9000406A00F002000028F2D1207800F0040023
:102AA000042873D100277148C06900F0805070B9C4
:102AB00000BF6E48C06940F080506C49C86108464C
:102AC000C06900F08050009000BF00BF01276A4835
:102AD000006800F48070B0B96748006840F4807006
:102AE00065490860FFF7ECFC054606E0FFF7E8FCE7
:102AF000401B642801D90320C0E65F48006800F449
:102B000080700028F2D000BFE068012806D1574845
:102B1000006A40F001005549086227E0E06858B9B2
:102B20005248006A20F00100504908620846006AD5
:102B300020F00400086219E0E06805280BD14B483A
:102B4000006A40F00400494908620846006A40F003
:102B5000010008620AE04548006A20F0010043498C
:102B600008620846006A20F00400086200BFE068BE
:102B7000A0B1FFF7A5FC054609E0FFF7A1FC401B4B
:102B800041F28831884202D9032077E622E03748B3
:102B9000006A00F002000028EFD012E0FFF790FC7E
:102BA000054608E0FFF78CFC401B41F28831884263
:102BB00001D9032062E62D48006A00F002000028D7
:102BC000F0D1012F05D12948C06920F08050274954
:102BD000C86100BFE069C8B32448406800F00C0039
:102BE000082860D0E069022848D100202049086602
:102BF000FFF766FC054606E0FFF762FC401B022873
:102C000001D903203AE61948006800F00070002856
:102C1000F2D1206AB0F5803F07D11448406820F413
:102C20000030A168084311494860D4E9080108430D
:102C30000E49496821F4741108430C494860012089
:102C40000B490866FFF73CFC054607E03DE0FFF74F
:102C500037FC401B022801D903200FE60348006817
:102C600000F000700028F2D02FE0000000100240B9
:102C7000000042428004424200700040002014499B
:102C80000866FFF71DFC054606E0FFF719FC401B30
:102C9000022801D90320F1E50E48006800F0007019
:102CA0000028F2D111E0E069012800D1E6E50948E9
:102CB000466806F48031206A814204D106F470111E
:102CC000606A814201D00120D8E50020D6E50000ED
:102CD0000000424200100240042808D14FF0E021D9
:102CE000096941F004014FF0E022116107E04FF063
:102CF000E021096921F004014FF0E02211617047E1
:102D000070B504462546681EB0F1807F01D30120CE
:102D10000FE0681E4FF0E02148610F214FF0FF30B7
:102D200000F068FD00204FF0E02188610720086175
:102D3000002070BD704700002DE9F0470446206870
:102D400005682068C668206847694FF00008C146DA
:102D500005F00F08B8F1000F0AD105F0200038B1D6
:102D600006F0200020B1204600F05DFBBDE8F087B2
:102D7000B8F1000F71D007F0010018B906F4907097
:102D800000286AD005F0010030B106F4807018B157
:102D9000E06B40F00100E06305F0040030B107F0A3
:102DA000010018B1E06B40F00200E06305F00200A2
:102DB00030B107F0010018B1E06B40F00400E063AF
:102DC00005F0080048B106F0200010B907F0010036
:102DD00018B1E06B40F00800E063E06B68B305F009
:102DE000200028B106F0200010B1204600F01BFBA7
:102DF00020684069C0F38019E06B00F0080010B94A
:102E0000B9F1000F22D0204600F0EDFA20684069A9
:102E100000F04000B0B12068406920F04000216817
:102E20004861606B50B11848616B4863606BFFF795
:102E3000B5F810B1606B416B88470CE02046FFF796
:102E400079FF08E02046FFF775FF04E02046FFF712
:102E500071FF0020E06389E7FFE705F0800030B1F3
:102E600006F0800018B1204600F0ACFB7EE705F0CC
:102E7000400030B106F0400018B1204600F0C3FA1F
:102E800074E700BF72E70000D333000810B50446B2
:102E90000CB9012010BDA06900B100E000BF94F89A
:102EA000390028B9002084F83800204600F028F8BE
:102EB000242084F839002068C06820F4005021687C
:102EC000C860204600F000FB2068006920F49040B4
:102ED000216808612068406920F02A002168486163
:102EE0002068C06840F400502168C8600020E0639A
:102EF000202084F8390084F83A000020CAE7000056
:102F000010B586B004465749206888424BD100BFAF
:102F100000BF5548806940F0040053498861084665
:102F2000806900F00400019000BF00BF00BF00BF37
:102F300000BF0846806940F0040088610846806947
:102F400000F00400019000BF00BF00BF00BF00BF41
:102F50000846806940F4804088610846806900F432
:102F60008040019000BF00BF00BF481502900220C2
:102F70000390012004900320059002A93B48FFF72D
:102F8000E7F84FF4806002900020039002A93748D0
:102F9000FFF7DEF82520FFF7D4FA0322114625209B
:102FA000FFF7DFFA5CE032492068884258D100BF61
:102FB00000BF2D48806940F004002B498861084615
:102FC000806900F00400019000BF00BF00BF00BF97
:102FD00000BF0846806940F00400886108468069A7
:102FE00000F00400019000BF00BF00BF00BF00BFA1
:102FF0000846C06940F40030C8610846C06900F462
:103000000030019000BF00BF00BF042002900220EA
:103010000390002004900320059002A91348FFF7B5
:1030200097F8082002900020039004900320059058
:1030300002A90E48FFF78CF8002211462620FFF760
:1030400090FA2620FFF77DFA2068C06840F0200043
:103050002168C8602068C06840F010002168C8601E
:1030600006B010BD003801400010024000080140C9
:10307000004400402DE9F84F04460E461746994695
:103080004FF0000A94F83A0020285DD106B117B934
:103090000120BDE8F88F00BF94F83800012801D165
:1030A0000220F6E7012084F8380000BF0020E0632A
:1030B000222084F83A00FFF703FA8246A785E785C5
:1030C000A068B0F5805F04D1206910B90025B04632
:1030D00002E035464FF0000800BF002084F83800B9
:1030E00000BF29E05346002220212046CDF8009061
:1030F00000F098FA08B10320CBE745B92068406892
:10310000C0F30800A8F8000008F1020811E0A06868
:10311000B0F5805F03D0A06828B9206918B920688D
:103120004068287004E02068406800F07F00287044
:103130006D1CE08D401EE085E08D0028D2D120205E
:1031400084F83A000020A4E70220A2E710B5034665
:1031500093F83A0020282FD101B10AB9012010BDFF
:1031600000BF93F83800012801D10220F7E70120C1
:1031700083F8380000BF99629A85DA850020D86309
:10318000222083F83A0000BF002083F8380000BFF7
:103190001868C06840F480701C68E0601868406976
:1031A00040F001001C6860611868C06840F02000B1
:1031B0001C68E0600020D2E70220D0E710B504468A
:1031C0002049206888423BD11F480078242802D13A
:1031D00000201E4908801C4801781C48028800888D
:1031E000401C1A4B18801A4881540078242820D19A
:1031F000174800794D281CD115484079432818D12B
:10320000114800780A2814D150211248FDF780FA9D
:103210000E4802880E490F48FDF713FA01200D49A8
:1032200081F85000002009490880C8210848FDF7AE
:103230004DFA06480088C82802DBC82003490880E8
:1032400010BD000000380140100000200C000020DC
:10325000A50000202C0000202DE9F84F04460E4662
:10326000174699464FF0000A94F8390020285AD1A1
:1032700006B117B90120BDE8F88F00BF94F83800F7
:10328000012801D10220F6E7012084F8380000BFB0
:103290000020E063212084F83900FFF711F982460D
:1032A000A784E784A068B0F5805F04D1206910B9D5
:1032B0000025B04602E035464FF0000800BF002070
:1032C00084F8380000BF1BE05346002280212046CE
:1032D000CDF8009000F0A6F908B10320CBE745B97E
:1032E000B8F80000C0F308002168486008F102083F
:1032F00003E02878216848606D1CE08C401EE08463
:10330000E08C0028E0D15346002240212046CDF831
:10331000009000F087F908B10320ACE7202084F882
:1033200039000020A7E70220A5E7704700BFFEE7AD
:1033300000B585B000BF1148806940F004000F4916
:1033400088610846806900F00400009000BF00BF5B
:1033500001200290039003200490C020019001A955
:103360000748FEF7F5FE4620FEF796FD012000F027
:1033700022F8B420FEF7E6FE05B000BD00100240C2
:10338000000C014000BFFEE77047000008B5084987
:103390000968C9084FF47A72B1FBF2F14143009118
:1033A00000BF00BF00994A1E00920029F9D108BD54
:1033B00000000020704710B50446FEF7A5FD46202A
:1033C000FEF76AFD2046FEF767FDFEF7C3FD10BD60
:1033D000704770B505466C6A0020E085E0842046A1
:1033E000FFF7A8FC70BD0168C96821F490710268FC
:1033F000D1600168496921F0010102685161202111
:1034000080F83A10704710B504462068C06820F074
:1034100040002168C860202084F839002046FFF76A
:1034200084FF002010BD70B5044694F83A002228AD
:1034300047D1A068B0F5805F0CD1206950B9002554
:10344000A66A20684068C0F308003080A06A801C2B
:10345000A06215E0A56A0026A068B0F5805F03D0E1
:10346000A06828B9206918B920684068287004E06D
:103470002068406800F07F002870A06A401CA062AD
:10348000E08D401E80B2E085C8B92068C06820F099
:1034900020002168C8602068C06820F4807021681E
:1034A000C8602068406920F0010021684861202040
:1034B00084F83A002046FFF781FE002070BD00200E
:1034C000FCE70220FAE7000070B5044621680969AC
:1034D00021F44051E2681143226811612269A16818
:1034E0001143626941EA02052168C96841F20C6230
:1034F000914329432268D1602168496921F44071D0
:10350000A2691143226851612D4A2168914202D17A
:10351000FFF756F901E0FFF743F900EBC00101EBBB
:10352000001162689200B1FBF2F100EBC00202EB05
:10353000001263689B00B2FBF3F26423B2FBF3F268
:1035400002EBC20303EB0212A1EB8201322202EB77
:1035500001116422B1FBF2F101F0F00100EBC002B5
:1035600002EB001263689B00B2FBF3F26423B2FB30
:10357000F3F201EB021200EBC00101EB00116368F2
:103580009B00B1FBF3F100EBC00303EB0013666893
:10359000B600B3FBF6F36426B3FBF6F303EBC30606
:1035A00006EB0313A1EB8301322303EB0111642328
:1035B000B1FBF3F101F00F0111442268916070BD7D
:1035C00000380140014691F83900212828D1886847
:1035D000B0F5805F0BD1086948B90A6A1088C0F35A
:1035E00008000B685860086A801C086205E00B6AD6
:1035F000581C086218780B685860C88C401E80B24E
:10360000C88458B90868C06820F080000B68D8608A
:103610000868C06840F040000B68D8600020704720
:103620000220FCE72DE9F04104460D461746984676
:10363000069E21E0701CF8B12EB1FEF741FFA0EB11
:103640000800B04218D92068C06820F4D070216802
:10365000C8602068406920F001002168486120208E
:1036600084F8390084F83A0000BF002084F838005C
:1036700000BF0320BDE8F081206800682840A84210
:1036800001D1012000E00020B842D3D00020F1E7B2
:1036900010B50648FFF750FB00BF0122044903485C
:1036A000FFF754FD0028F8D110BD00007001002084
:1036B000100000201CB53E4800680068C0F3C00040
:1036C00090B100BF00200090394800680068009069
:1036D000374800684068009000BF00BF3448006869
:1036E0000068334800684068314800680068C0F3EB
:1036F000401010B34FF0FF33012201A92C48FFF70F
:10370000B9FC2C48B0F88000C0F30E007F2815DA11
:103710009DF804002749B1F88010C1F30E01254A35
:1037200050541046B0F88000401C1146B1F880108B
:1037300060F30E011046A0F880101BE01D48B0F8A1
:1037400080006FF30E001B49A1F880009DF8040073
:10375000B1F88010C1F30E01164A50541046B0F86B
:103760008000401C1146B1F8801060F30E01104635
:10377000A0F880100E4800680068C0F30010B0B1D7
:103780000C48B0F8800020F4004000F500400949E2
:10379000A1F8800000BF0020009005480068006884
:1037A0000090034800684068009000BF00BF1CBD47
:1037B000B0010020F001002000BFFEE7490050EA00
:1037C000C12018BF04204A0D18BF40F0010040F28C
:1037D000FF72B2EB515F08BF40F00200012808BF42
:1037E0000520704702480068C0F3022070470000BF
:1037F0000CED00E010B5002804DB0A07130E054AA3
:10380000135406E00A07140E034A00F00F031B1FAF
:10381000D45410BD00E400E018ED00E030380A2870
:1038200001D2012070470020704700BF70470000A0
:1038300070B500250BE04FF4FA7207A107A000F065
:103840004FF904460CB9002070BD681CC5B20A2DA2
:10385000F1DB0120F8E700004F4B0000415400006D
:1038600070B5054615B1012D10D107E04FF4FA727D
:103870000AA10BA000F034F9044609E04FF4FA72F3
:1038800006A109A000F02CF9044601E0032070BD58
:1038900000BF0CB90020FAE70120F8E74F4B000009
:1038A0004154453000000000415445310000000003
:1038B00070B590B004460D462B46224608A16846D6
:1038C000FCF704FD41F288320CA1684600F008F9CB
:1038D000064616B9002010B070BD0120FBE70000BD
:1038E00041542B43495053544152543D2254435068
:1038F000222C222573222C2573000000434F4E4EAC
:103900004543540010B54FF4FA7209A109A000F024
:10391000E7F804464FF4FA720AA10BA000F0E0F8B1
:103920002044C4B20CB9002010BD0120FCE7000007
:103930004F4B000041542B4349504D4F44453D31BE
:10394000000000003E00000041542B434950534505
:103950004E44000010B502A000F058F910BD000060
:103960002B2B2B002DE9F04106464FF4FA720FA1E4
:103970000FA000F0B5F8074617B10120BDE8F081AF
:1039800000F062F980460DA1FCF72AFE04460BA167
:10399000601CFCF725FE054600202870621C08A16B
:1039A0003046FCF793FC0020E8E700004F4B000096
:1039B00041542B43494653520000000022000000AE
:1039C0002573000000B585B000BF00BF0D488069B9
:1039D00040F008000B4988610846806900F0080043
:1039E000009000BF00BF00BF0120019002900020A6
:1039F00003900320049001A90348FEF7A9FB05B03A
:103A000000BD000000100240000C014010B500BFD6
:103A1000002201210948FEF74DFD00BF642000F09F
:103A200075F900BF012211460448FEF743FD00BFAF
:103A30004FF4FA7000F06AF910BD0000000C01406C
:103A400010B50446FFF7BEFFFFF7E0FF204600F089
:103A5000C5F8FFF7EDFE08B1012010BD0020FCE71E
:103A600070B590B004460D462B46224608A1684624
:103A7000FCF72CFC42F210720AA1684600F030F804
:103A8000064616B9002010B070BD0120FBE700000B
:103A900041542B43574A41503D222573222C222565
:103AA000732200005749464920474F54204950008F
:103AB00010B540F6B83205A106A000F011F8044692
:103AC0000CB9002010BD0120FCE7000072656164A4
:103AD0007900000041542B524553544F5245000089
:103AE0002DE9F04105460E461446002700F0C2F8C5
:103AF00029460FA000F08AF806B114B90020BDE8ED
:103B0000F08110E000F0A0F8074647B13146384692
:103B1000FCF766FD08B10020F1E700F0ABF8641E89
:103B2000012000F0F3F8002CECD10220E7E70000C0
:103B300025730D0A0000000070B50546012D04D064
:103B4000022D0AD0032D18D10FE04FF4FA720FA105
:103B50000FA0FFF7C5FF044611E04FF4FA720BA166
:103B60000EA0FFF7BDFF044609E04FF4FA7207A16B
:103B70000DA0FFF7B5FF044601E0032070BD00BFB4
:103B80000CB90020FAE70120F8E700004F4B0000D5
:103B900041542B43574D4F44453D310041542B4335
:103BA000574D4F44453D320041542B43574D4F44F0
:103BB000453D330010B54FF4FA7205A105A0FFF79B
:103BC0008FFF04460CB9002010BD0120FCE7000067
:103BD0004F4B000041542B525354000010B5044683
:103BE0000848094908600846446000218160C160B6
:103BF00001610C21416100218161C161FFF746F93A
:103C000010BD000000440040B00100200FB438B5E2
:103C100005A800900A48009A0499FCF739FB002097
:103C200000900748FCF7EEFC84B24FF0FF332246C9
:103C300003490448FFF710FB38BC5DF814FB000093
:103C400072020020B00100200948B0F88000012174
:103C5000B1EBD03F09D100200549B1F88010C1F384
:103C60000E01034A5054104670470020FCE7000044
:103C7000F00100200748B0F880006FF30E000549FE
:103C8000A1F880000846B0F8800020F40040A1F8B8
:103C900080007047F001002010B50020104981F825
:103CA000500081F8510081F8780050210C48FCF751
:103CB0002FFD0B485230002101604160018181726B
:103CC0000B3001604160018181725D38A0F868109D
:103CD0006A300160416081606A38A0F8761010BDDA
:103CE0002C00002010B5044600204FF0E0210861B0
:103CF000FEF7F2FF2046E11704EB5171C1F3CF014B
:103D0000014A118010BD00000400002070B5044677
:103D10004FF47A7094FBF0F594FBF0F100FB114640
:103D200003E0074800F00EF86D1E002DF9D12EB10A
:103D30004FF47A7106FB01F000F004F870BD00004A
:103D400040420F000146114A12884A434FF0E023D7
:103D50005A6100229A611A46126942F001021A6100
:103D600000BF4FF0E022106900F001021AB100F428
:103D70008032002AF5D04FF0E022126922F00102D1
:103D80004FF0E0231A6100229A617047040000207E
:103D900070B505465DB9FFF74BFD04461CB906A09A
:103DA000FCF788FA06E009A0FCF784FA02E00CA010
:103DB000FFF72CFF70BD0000415420746573742020
:103DC00073756363657373210D0A00004154207499
:103DD000657374206661696C6564210D0A000000DA
:103DE000546869732041544B2D4D57383236364450
:103DF0002054435020436F6E6E6563742054657386
:103E0000742E0D0A0000000070B50446207868B9D1
:103E1000FFF778FD05462DB90120207007A0FCF7BB
:103E200049FA0AE00BA0FCF745FA06E0FFF792FD1D
:103E3000002020700EA0FCF73DFA70BD456E746541
:103E40007220756E7661726E6973686564210D0A01
:103E500000000000456E74657220756E7661726EAA
:103E60006973686564206661696C6564210D0A0088
:103E70004578697420756E7661726E6973686564E1
:103E8000210D0A0086B0FFF707FF00F067F9002553
:103E90004FF4E130FFF7D4FD04466CB151A0FCF7BC
:103EA00009FA08E000BF20215548FEF7F9FA00BFE3
:103EB000C820FFF72BFFF5E752A0FCF7FBF9FFF74F
:103EC000F7FD0446FFF7B4FC2044C4B20120FFF71D
:103ED00033FE2044C4B2FFF76DFE2044C4B200207C
:103EE000FFF7BEFC2044C4B24BA14EA0FFF7B8FDC3
:103EF0002044C4B202A8FFF735FD2044C4B26CB11F
:103F00004BA0FCF7D7F908E000BF20213C48FEF7A2
:103F1000C7FA00BFC820FFF7F9FEF5E702A800F0D6
:103F2000D1F848A149A0FFF7C3FC04466CB14BA0EF
:103F3000FCF7C0F908E000BF20213148FEF7B0FAD5
:103F400000BFC820FFF7E2FEF5E7022000F058FBB3
:103F5000FFF790FE44E000F0A9FA4FF00008694630
:103F600001A800F062F99DF8041044A0FCF7A2F942
:103F70009DF8001046A0FCF79DF94FF47A70FFF70A
:103F8000C5FEFFF7D5F900F015FB8146484600F065
:103F900077FE064632460B4641A0FCF78BF94FF4FC
:103FA0007A70FFF7B3FE284600F09AF800F096FB0F
:103FB0009DF8041031A0FFF729FE9DF8001034A0F1
:103FC000FFF724FE484600F05BFE064632460B46ED
:103FD00038A0FFF71BFE4FF47A70FFF797FE00BF83
:103FE000B9E7000041544B2D4D5738323636442046
:103FF000696E6974206661696C6564210D0A000050
:10400000000C01404A6F696E696E6720746F204131
:10401000502E2E2E0D0A000031323334353637380B
:104020000000000058696E58756E2D32393034002A
:104030004572726F7220746F206A6F696E206170B2
:10404000210D0A00383038300000000039342E3796
:10405000342E3130332E3137370000004572726F05
:104060007220746F20636F6E6E656374207463706A
:1040700020736572766572210D0A000074656D709B
:10408000657261747572653A2025640D0A0000003E
:1040900068756D69646974793A2025640D0A0000B9
:1040A0006C6967687420697320A3BA2566206C78F0
:1040B000200000006C69676874A3BA2566206C78DC
:1040C0002000000010B50446214602A0FCF7F2F8DB
:1040D00010BD000049503A2025730D0A0000000071
:1040E00070B50546012D09D1FFF7AEFD04462CB190
:1040F000214603A0FCF7DEF8FFF7BCFD70BD000011
:104100002573000070B50024002504E0601CC4B2D3
:104110000120FFF717FE4FF400510F48FEF7B8F9E2
:1041200008B1642CF2DB642C01DB012511E00024D2
:1041300004E0601CC4B20120FFF704FE4FF40051FC
:104140000548FEF7A5F908B9642CF2DB642C00DB06
:104150000125284670BD0000000C014000B585B067
:1041600000BF00BF1048806940F008000E49886118
:104170000846806900F00800009000BF00BF00BF43
:104180004FF4005001901120029001200390032071
:10419000049001A90548FDF7DBFF00F073F8FFF775
:1041A000B1FF05B000BD000000100240000C01404E
:1041B00010B5002404E0601CC4B20120FFF7C2FD6A
:1041C0004FF400511048FEF763F908B1642CF2DB9C
:1041D000002404E0601CC4B20120FFF7B3FD4FF4DB
:1041E00000510948FEF754F908B9642CF2DB282085
:1041F000FFF7A8FD4FF400510348FEF749F908B155
:10420000012010BD0020FCE7000C014070B5002427
:10421000002506E06006040EFFF7CAFF0443681C91
:10422000C5B2082DF6DB204670BD7CB505460E46AE
:1042300000F028F8FFF766FFF8B9002405E0FFF763
:10424000E5FF0DF80400601CC4B2052CF7DB9DF8F7
:1042500000009DF8011008449DF8021008449DF8E4
:10426000031008449DF80410884208D19DF800000E
:1042700030709DF80200287001E001207CBD002014
:10428000FCE7000010B500BF00224FF400510948C0
:10429000FEF710F900BF1420FFF738FD00BF012220
:1042A00051030448FEF706F900BF1E20FFF74AFD40
:1042B00010BD0000000C0140044603E0214602A0AE
:1042C000FBF7F8FFFAE700004552524F5225640D04
:1042D0000A00000000BF054A126802F04002002AEE
:1042E000F9D0C2B2014B1B1D1A6070470038014063
:1042F00000B585B000BF00BF2848806940F040008D
:10430000264988610846806900F04000009000BF9F
:1043100000BF00BF00BF00BF0846806940F04000FA
:1043200088610846806900F04000009000BF00BF2F
:1043300000BF00BF00BF0846806940F004008861EC
:104340000846806900F00400009000BF00BF00BF75
:10435000102001900020029001200390032004907F
:1043600001A90F48FDF7F4FE0820019000200290FB
:10437000012003900320049001A90948FDF7E8FEFD
:10438000012001900020029002200390032004905D
:1043900001A90448FDF7DCFE05B000BD0010024095
:1043A000001801400008014000B585B000BF00BF03
:1043B0001E48806940F008001C49886108468069F1
:1043C00000F00800009000BF00BF00BF00BF00BFAA
:1043D0000846806940F0400088610846806900F026
:1043E0004000009000BF00BF00BF202001900120CE
:1043F000029003900320049001A90D48FDF7A8FE48
:104400002020019001A90B48FDF7A2FE00BF012268
:1044100020210748FEF74EF800BF00BF01222021EF
:104420000448FEF747F800BF05B000BD0010024089
:10443000000C01400018014010B5FEF747F84FF49A
:10444000E01000F01FF94820FFF74CFC4FF4165025
:1044500000F0D8F9FFF7A8FFFFF74AFF00F0E2F8F5
:10446000FFF710FD002010BD10B5FDF74DFD4720F2
:10447000FDF712FD00240FE00020FDF793FC0A4930
:104480000855022C03D10120FDF7D0FC02E00020EA
:10449000FDF7CCFC601CC4B2032CEDDBFDF75AFD2C
:1044A0000520FFF733FC10BD20000020F8B50026E2
:1044B000394890F8500000286CD00020364981F827
:1044C000500036A0FBF7F6FE3348FBF7D5FE00BFE1
:1044D0005EE046B936A13048FCF782F8040055D1B9
:1044E0000120FFF7E9FE641C31A12046FCF778F8B3
:1044F000050048D0072E2ED2DFE806F02D040B1160
:10450000181F26002A1B214623485230FCF799F831
:1045100022E02A1B21466846FCF793F81CE02A1B80
:1045200021461D485D30FCF78CF815E02A1B21461A
:1045300019486830FCF785F80EE02A1B214616481A
:104540006A30FCF77EF807E02A1B214612487630D5
:10455000FCF777F800E000BF00BF2C4601200E49B1
:1045600081F851009DF80000412803D1012081F815
:10457000780007E09DF80000562803D10020064986
:1045800081F8780002E00220FFF796FE701CC6B2A8
:10459000062E9EDDF8BD00002C0000202A2A2A2AC3
:1045A0002A2A2A2A2A2A2A2A2A2A0D0A0000000050
:1045B0002C0000002DE9F0470120FEF7FCFE102042
:1045C000FEF7F9FEB420FFF7A1FBFFF74DFF0A4805
:1045D0000478407800EB0424204600F0E5FA074612
:1045E0004FF03332054B00F087F9054600F052F9E1
:1045F00081464846BDE8F087200000203333F33F72
:1046000038B5044600200090012C04D19DF800002C
:10461000FFF7BEFB04E0022C02D16846FFF7F4FB73
:1046200038BD000010B509A0FBF744FE08A0FBF759
:1046300041FE10A0FBF73EFE10A0FBF73BFE04A0DE
:10464000FBF738FE0AA0FBF735FE10BD0A0000009C
:104650002A2A2A2A2A2A2A2A2A2A2A2A2A2A2A2ABA
:104660002A2A2A2A2A2A2A2A2A2A2A2A2A2A2A2AAA
:104670000D0A000053544D33320D0A0055424C4F81
:10468000580D0A0030B58FB0054601240120059071
:10469000000406900020079002200C90C1030D91A9
:1046A0000E9505A8FEF7E6F804460CB100BFFEE73C
:1046B0000F20009002200190002002904FF48060B3
:1046C00003900020049002216846FDF79DFF0446F8
:1046D0000CB100BFFEE70FB030BD000010B524489C
:1046E00090F85100002842D00020214981F8510063
:1046F00020A0FFF78BFA1E485230FFF787FA23A05D
:10470000FFF784FA1A4890F8780000282CD000208F
:10471000174981F878001EA0FFF778FA14485D3039
:10472000FFF774FA19A0FFF771FA1FA0FFF76EFAEE
:104730000F486830FFF76AFA14A0FFF767FA1FA066
:10474000FFF764FA0A486A30FFF760FA0FA0FFF734
:104750005DFA20A0FFF75AFA05487630FFF756FABF
:104760000AA0FFF753FA02E01FA0FFF74FFA10BDAF
:104770002C000020536176655F446174612E5554AE
:104780004354696D65203D20000000000D0A0000C3
:10479000536176655F446174612E6C6174697475F0
:1047A0006465203D20000000536176655F446174BC
:1047B000612E4E5F53203D2000000000536176655E
:1047C0005F446174612E6C6F6E67697475646520F7
:1047D0003D200000536176655F446174612E455F42
:1047E00057203D20000000004750532044415441D1
:1047F000206973206E6F742075736566756C6C210B
:104800000D0A000010B5044609480A490860084628
:10481000446000218160C160016181610C214161BE
:10482000FEF734FB012204490248FEF78FFC10BD5D
:1048300000380140700100201000002010B5002950
:104840000AD00878002807D005487844FCF772FEA3
:10485000002801D0002010BD0248784410BD00009F
:10486000620600005A06000010B500290AD0087838
:10487000002807D005487844FCF75CFE002801D0EA
:10488000002010BD0248784410BD00005206000010
:104890004A06000021F00042A2F16052B2F5801FEA
:1048A00001F0004328BFD2F17F6C0BD95FEA001CF6
:1048B00043EAC20242EB507018BF704728BF20F095
:1048C00001007047B2F5801FBCBF184670474FEA21
:1048D000410C1CF5001F02D2084600F042BA70B528
:1048E00000F079F900000089FFF7F6BF4FF00040B3
:1048F000A0F58000704700002DE9C04130B4DFF81A
:10490000A0C23CEA111418BF3CEA131400F0EC807A
:1049100081EA03051CEA111444EAD57418BF1CEAA5
:10492000131500F0C780A4EB05044FF0004545EADD
:10493000C12145EAC32341EA505143EA525304F1ED
:104940007F74994204F500344FEAC0204FEAC22236
:1049500008BF904200F09C804FEA13650FF24016AA
:10496000765D4FEA134506FB05F7C7F1807706FB36
:1049700007F74FEAD737A7FB03687642C8F58038B8
:10498000A7FB06CE38BFA8F1010807FB08E64FF0E9
:10499000000EA6FB028CE6FB03CEDCF1000CCEF190
:1049A000004E38BFAEF1010EA6FB0C584FF00007C9
:1049B0004FF00005E6FB0E87A1FB08C6A0FB07CE63
:1049C00016EB0E0645F10005E1FB076515F1E04E1B
:1049D0007EBFA4F580345FEA46066D4116F180077C
:1049E00045F100054FEA17274FEA066647EA0567D3
:1049F000A6F1DE46B6F1805F4FEA15251FD938468D
:104A000024F0010C05EBC471BCF1FE6F01EB0C113D
:104A100002D8F0BCBDE8008124425CBF01F5801ED5
:104A20009EEAC47F02D4F0BCBDE80081244238D4A1
:104A3000F0BCA1F1C041BDE8004100F01AB94FEA55
:104A4000D22242EA43524FEAD323A7FB02864FEA1F
:104A5000D02040EA415007FB03661EEA0E0F4FEAE2
:104A6000D12105FB026658BFA6EB0056B6EB0056F7
:104A70004FEA520E4EEAC37E18EB0E0E56EB530E63
:104A8000BDD518EB02085E417F1C55F10005B6E765
:104A90004FF480154FF000074FF000064FF000086C
:104AA000ADE7F0BC4FF0000001F1C04101F0004162
:104AB000BDE8008111EA0C1F0CEA131500D00CE0D0
:104AC00013EA0C1F00F025804FF00000F0BC81EAD3
:104AD000030101F00041BDE80081F0BCBDE80041E8
:104AE00081EA030100F0C5B8F0BCBDE8004170B533
:104AF00000F071F8097EFC3E00F007B881EA03017E
:104B00004FF0000001F00041704781EA030100F01E
:104B1000B0B8F0BCBDE800414FF00000214970473B
:104B2000FFFDFBF9F7F5F4F2F0EEEDEBE9E8E6E472
:104B3000E3E1E0DEDDDBDAD8D7D5D4D3D1D0CFCDF9
:104B4000CCCBCAC8C7C6C5C4C2C1C0BFBEBDBCBB32
:104B5000BAB9B8B7B6B5B4B3B2B1B0AFAEADACAB2D
:104B6000AAA9A8A8A7A6A5A4A3A3A2A1A09F9F9E07
:104B70009D9C9C9B9A9999989797969595949393B9
:104B8000929191908F8F8E8E8D8C8C8B8B8A898950
:104B900088888787868585848483838282818180D3
:104BA0000000FF070000F87F10F0004248BF4042BD
:104BB000B0FA80F310FA03F10AD0C3F11D0303F534
:104BC00080634FEA415002EB035202EBD121704760
:104BD0004FF0000070470EF1020E2EF0030E5EF84B
:104BE000046B364205D4012A43EB030515F5001F7B
:104BF00012D8012841EB010C1CF5001F0CD80ED176
:104C00004FEAD17C15F5001F0CEB4C0C0CF1020C9B
:104C100008BF4CEBD37C04E04FF0080C01E04FEAF6
:104C2000D37C0CEB4C0526FA05F606F00706B6F128
:104C3000040C06D20EEB860CBDE870404CF0010C63
:104C40006047DFE80CF0090B02024FF000414FF023
:104C50000000A1F5002170BD19461046012851EB56
:104C6000010418BFD4F5001484BF002001F00041F6
:104C700070BD0808A0F500114FEA3101704700002F
:104C800043004FEAD30C4FEA3C0C43401FBF4007A0
:104C90000CF1605113F0FE4F70471CF0006F03D110
:104CA00000200CF0004170470CF0004343EA5070C4
:104CB00010B540EACC0000F00EF800BF00000092F2
:104CC0004FEA0001FFF7D5BF4FF000414FF0000061
:104CD000A1F5002170470EF1020E2EF0030E5EF8D2
:104CE000044B244204D44FEA4102B2F17F4F11D861
:104CF0004FEA4003B3F17F4F0CD80ED14FEAD07C7E
:104D0000B2F17F4F0CEB4C0C0CF1020C08BF4CEBDA
:104D1000D17C04E04FF0080C01E04FEAD17C0CEBB1
:104D20004C0324FA03F404F00704B4F1040C06D293
:104D30000EEB840CBDE810404CF0010C6047DFE83E
:104D40000CF0070802024FF00040A0F5800010BDF3
:104D50000846420018BFD2F1807288BF00F00040C0
:104D600010BDFF2141EAD050C0057047FBF778BE67
:104D7000FCF742B90000000000000000010203043B
:104D80000607080900000000010203043031323335
:104D9000343536373839414243444546403058006F
:104DA00030313233343536373839616263646566A1
:104DB00040307800040000080000000000000002FD
:104DC00000010000100000000000000000000000D2
:104DD0003031323334353637383961626364656671
:104DE0007870003031323334353637383941424308
:104DF000444546585000000002400000000000A05A
:104E00000000000005400000000000C80000000095
:104E10000C4000000000409C000000001940000011
:104E20000020BCBE0000000034400000BFC91B8E43
:104E300000000004B5400000504BCFD06607E2CF21
:104E4000010000006C4100003E8251AADFEEA73451
:104E500001000000D9420000DCB5A0E23A301F9703
:104E6000FFFFFFFFB4450000FD25A0C8E9A3C14F27
:104E7000FFFFFFFFFF3F0000000000800000000078
:104E8000FF3F00000000008000000000D84F000835
:104E9000000000202C000000280100080450000839
:104EA0002C000020EC080000440100081C00000059
:104EB00043000000F8FFFFFF0C0000000E000000A0
:104EC0000F0000002E000000100100004300000051
:104ED000F8FFFFFF0040404040404040404041411B
:104EE00041414140404040404040404040404040BF
:104EF0004040404040050202020202020202020259
:104F00000202020202202020202020202020200255
:104F100002020202020290909090909010101010E5
:104F20001010101010101010101010101010101081
:104F30000202020202028888888888880808080815
:104F400008080808080808080808080808080808E1
:104F50000202020240000000000000000000000009
:104F60000000000000000000000000000000000041
:104F70000000000000000000000000000000000031
:104F80000000000000000000000000000000000021
:104F90000000000000000000000000000000000011
:104FA0000000000000000000000000000000000001
:104FB00000000000000000000000000000000000F1
:104FC00000000000000000000000000000000000E1
:104FD00000000000000000000024F40000000000B9
:104FE00000000000000000000000000000000000C1
:104FF00010000000010000000000000000000000A0
:0450000000000000AC
:04000005080000ED02
:00000001FF
